:020000040000FA
:060000000AEF17F01200E8
:020006001200E6
:08000800F2A402D04FEF12F048
:100010009EA002D0B3EF12F0F2A002D0CDEF14F008
:100020009EAA02D082EF0FF01200D08EF28E120044
:10003000FF0EE3501C6E480E01D04C0EE76EE72E0B
:10004000FED7E76AE72EFED71C2EF7D70000120076
:100050000B0003300000D401000016000000013046
:100060000000B102000002000000F62F00009C0218
:1000700000000B000000F52F0000B5020000010099
:100080000000E12F0000EA01000014000000B92F79
:1000900000009301000028000000AB2F00008E023A
:1000A00000000E000000922F0000BB0100001900AC
:1000B00000008B2F00000001000007000000FF2E51
:1000C0000000070100008C000000812E00000002EB
:0600D00000007E000000AC
:0A00D600D9CFE6FFE1CFD9FFE652D3
:1000E000FD0EDBCF16F0FE0EDBCF17F017C016F0BB
:1000F000176A640E1702F3CF17F01602F3CF16F04B
:10010000F4501726FD0EDBCF18F0FE0EDBCF19F0F2
:10011000040ED89019321832E804FBE10A0E1902D5
:10012000F3CF19F01802F3CF18F0F4501926165037
:100130001810146E17501910156E0F0EE76EFD0E85
:10014000DBCF1AF0FE0EDBCF1BF0E7501A161B6A4E
:1001500014501A10DF6EDF5000D0E552E552E7CFA1
:10016000D9FF1200D9CFE6FFE1CFD9FFFE0EDB5059
:10017000F00BE83A060DFE0EDBCFE7FFF350E75E2B
:10018000FE0EE7CFDBFFDB50146E156A14C0F3FFE1
:1001900015C0F4FF00D0E552E7CFD9FF1200D9CF48
:1001A000E6FFE1CFD9FF020EE1260A0E146E14C05D
:1001B0000EF0FE0EDBCF09F018EC17F00950DF6EE1
:1001C0000A0E146E14C00EF0FE0EDBCF09F018EC10
:1001D00017F0010E05C0DBFFDB500F0B146E0F0E86
:1001E000DF14100DF3501410146E020EE15C03E2E4
:1001F00000D0E16AE552E16E1450E552E7CFD9FF35
:100200001200D9CFE6FFE1CFD9FF0E0EE126FD0E99
:10021000DBCF14F0FE0EDBCF15F00A0E0D6E0E6A6A
:1002200014C008F015C009F0CEEC16F004C014F0AC
:1002300005C015F00A0E14C0DBFF0B0E15C0DBFF66
:100240000C0EDB6A0D0EDB6A0A0EDB50E76E040E45
:10025000E7CFDBFFFD0EDBCF14F0FE0EDBCF15F09A
:100260000A0E0D6E0E6A14C008F015C009F0CEEC2F
:1002700016F008C014F009C015F0060E14C0DBFF1C
:10028000070E15C0DBFF080EDB6A090EDB6A060EDF
:10029000DBCF06F0070EDBCF07F0080EDBCF08F050
:1002A000090EDBCF09F00A0E0B6E0C6A0D6A0E6A9E
:1002B000DBEC15F00A0E02C0DBFF0B0E03C0DBFF08
:1002C0000C0E04C0DBFF0D0E05C0DBFF0A0EDB5079
:1002D000E76E030EE7CFDBFF060EDBCF06F0070E5F
:1002E000DBCF07F0080EDBCF08F0090EDBCF09F0FB
:1002F0000A0E0B6E0C6A0D6A0E6ADBEC15F0060E28
:1003000006C0DBFF070E07C0DBFF080E08C0DBFFDF
:10031000090E09C0DBFF060EDBCF06F0070EDBCFB0
:1003200007F0080EDBCF08F0090EDBCF09F00A0E4C
:100330000B6E0C6A0D6A0E6ADBEC15F00A0E02C039
:10034000DBFF0B0E03C0DBFF0C0E04C0DBFF0D0E4A
:1003500005C0DBFF0A0EDB50E76E020EE7CFDBFFC6
:10036000060EDBCF06F0070EDBCF07F0080EDBCF63
:1003700008F0090EDBCF09F00A0E0B6E0C6A0D6A4D
:100380000E6ADBEC15F0060E06C0DBFF070E07C099
:10039000DBFF080E08C0DBFF090E09C0DBFF060EFD
:1003A000DBCF06F0070EDBCF07F0080EDBCF08F03F
:1003B000090EDBCF09F00A0E0B6E0C6A0D6A0E6A8D
:1003C000DBEC15F00A0E02C0DBFF0B0E03C0DBFFF7
:1003D0000C0E04C0DBFF0D0E05C0DBFF0A0EDB5068
:1003E000E76E010EE7CFDBFF060EDBCF06F0070E50
:1003F000DBCF07F0080EDBCF08F0090EDBCF09F0EA
:100400000A0E0B6E0C6A0D6A0E6ADBEC15F0060E16
:1004100006C0DBFF070E07C0DBFF080E08C0DBFFCE
:10042000090E09C0DBFF060EDB50DF6E050EDB6A2E
:10043000F36EDBCFF4FFF350F45C21E2D9CF14F07C
:10044000DACF15F0050EDB500F011424E96E000E13
:100450001520EA6EEF50E66E050EDB50E76EFB0EE0
:10046000DBCFE9FFFC0EDBCFEAFFE750E926000E09
:10047000EA22E552E750EF6E050EDB2AD9D70E0EC1
:10048000E15C02E2E16AE552E16EE552E7CFD9FFB5
:100490001200D9CFE6FFE1CFD9FF080EE1260A0E00
:1004A000146E14C00EF0FE0EDBCF09F018EC17F03E
:1004B0000550E66ED950060FE96EDACFEAFFE55235
:1004C000E750EE6EED6A060EDB50E76E020EE7CFE8
:1004D000DBFF0A0E146E14C00EF0FE0EDBCF09F027
:1004E00018EC17F00950E66ED950040FE96EDACF18
:1004F000EAFFE552E750EE6EED6A040EDBCF14F032
:10050000050EDBCF15F00A0E0D6E0E6A14C008F052
:1005100015C009F0CEEC16F004C014F005C015F0BB
:10052000060E14C0DBFF070E15C0DBFF060EDB5006
:10053000E76E010EE7CFDBFF0A0E146E156A040E9C
:10054000DBCF08F0050EDBCF09F014C00DF015C0AD
:100550000EF0CEEC16F0040E08C0DBFF050E09C04D
:10056000DBFF040EDB50DF6E030EDB6AF36EDBCFC6
:10057000F4FFF350F45C21E2D9CF14F0DACF15F098
:10058000030EDB500F011424E96E000E1520EA6EF5
:10059000EF50E66E030EDB50E76EFC0EDBCFE9FF9B
:1005A000FD0EDBCFEAFFE750E926000EEA22E55216
:1005B000E750EF6E030EDB2AD9D7080EE15C02E2AA
:1005C000E16AE552E16EE552E7CFD9FF1200D9CFDB
:1005D000E6FFE1CFD9FF130EE126FB0EDBCF06F0DD
:1005E000FC0EDBCF07F0FD0EDBCF08F0FE0EDBCFFD
:1005F00009F00A0E0B6E0C6A0D6A0E6ADBEC15F040
:100600000F0E02C0DBFF100E03C0DBFF110E04C093
:10061000DBFF120E05C0DBFF0F0EDB50E76E090E8D
:10062000E7CFDBFFFB0EDBCF06F0FC0EDBCF07F0E6
:10063000FD0EDBCF08F0FE0EDBCF09F00A0E0B6ECD
:100640000C6A0D6A0E6ADBEC15F00B0E06C0DBFFC0
:100650000C0E07C0DBFF0D0E08C0DBFF0E0E09C03D
:10066000DBFF0B0EDBCF06F00C0EDBCF07F00D0E21
:10067000DBCF08F00E0EDBCF09F00A0E0B6E0C6A12
:100680000D6A0E6ADBEC15F00F0E02C0DBFF100ED8
:1006900003C0DBFF110E04C0DBFF120E05C0DBFF41
:1006A0000F0EDB50E76E080EE7CFDBFF0B0EDBCF44
:1006B00006F00C0EDBCF07F00D0EDBCF08F00E0EB0
:1006C000DBCF09F00A0E0B6E0C6A0D6A0E6ADBECCA
:1006D00015F00B0E06C0DBFF0C0E07C0DBFF0D0E86
:1006E00008C0DBFF0E0E09C0DBFF0B0EDBCF06F0F0
:1006F0000C0EDBCF07F00D0EDBCF08F00E0EDBCFBC
:1007000009F00A0E0B6E0C6A0D6A0E6ADBEC15F02E
:100710000F0E02C0DBFF100E03C0DBFF110E04C082
:10072000DBFF120E05C0DBFF0F0EDB50E76E070E7E
:10073000E7CFDBFF0B0EDBCF06F00C0EDBCF07F0B5
:100740000D0EDBCF08F00E0EDBCF09F00A0E0B6E9C
:100750000C6A0D6A0E6ADBEC15F00B0E06C0DBFFAF
:100760000C0E07C0DBFF0D0E08C0DBFF0E0E09C02C
:10077000DBFF0B0EDBCF06F00C0EDBCF07F00D0E10
:10078000DBCF08F00E0EDBCF09F00A0E0B6E0C6A01
:100790000D6A0E6ADBEC15F00F0E02C0DBFF100EC7
:1007A00003C0DBFF110E04C0DBFF120E05C0DBFF30
:1007B0000F0EDB50E76E060EE7CFDBFF0B0EDBCF35
:1007C00006F00C0EDBCF07F00D0EDBCF08F00E0E9F
:1007D000DBCF09F00A0E0B6E0C6A0D6A0E6ADBECB9
:1007E00015F00B0E06C0DBFF0C0E07C0DBFF0D0E75
:1007F00008C0DBFF0E0E09C0DBFF0B0EDBCF06F0DF
:100800000C0EDBCF07F00D0EDBCF08F00E0EDBCFAA
:1008100009F00A0E0B6E0C6A0D6A0E6ADBEC15F01D
:100820000F0E02C0DBFF100E03C0DBFF110E04C071
:10083000DBFF120E05C0DBFF0F0EDB50E76E050E6F
:10084000E7CFDBFF0B0EDBCF06F00C0EDBCF07F0A4
:100850000D0EDBCF08F00E0EDBCF09F00A0E0B6E8B
:100860000C6A0D6A0E6ADBEC15F00B0E06C0DBFF9E
:100870000C0E07C0DBFF0D0E08C0DBFF0E0E09C01B
:10088000DBFF0B0EDBCF06F00C0EDBCF07F00D0EFF
:10089000DBCF08F00E0EDBCF09F00A0E0B6E0C6AF0
:1008A0000D6A0E6ADBEC15F00F0E02C0DBFF100EB6
:1008B00003C0DBFF110E04C0DBFF120E05C0DBFF1F
:1008C0000F0EDB50E76E040EE7CFDBFF0B0EDBCF26
:1008D00006F00C0EDBCF07F00D0EDBCF08F00E0E8E
:1008E000DBCF09F00A0E0B6E0C6A0D6A0E6ADBECA8
:1008F00015F00B0E06C0DBFF0C0E07C0DBFF0D0E64
:1009000008C0DBFF0E0E09C0DBFF0B0EDBCF06F0CD
:100910000C0EDBCF07F00D0EDBCF08F00E0EDBCF99
:1009200009F00A0E0B6E0C6A0D6A0E6ADBEC15F00C
:100930000F0E02C0DBFF100E03C0DBFF110E04C060
:10094000DBFF120E05C0DBFF0F0EDB50E76E030E60
:10095000E7CFDBFF0B0EDBCF06F00C0EDBCF07F093
:100960000D0EDBCF08F00E0EDBCF09F00A0E0B6E7A
:100970000C6A0D6A0E6ADBEC15F00B0E06C0DBFF8D
:100980000C0E07C0DBFF0D0E08C0DBFF0E0E09C00A
:10099000DBFF0B0EDBCF06F00C0EDBCF07F00D0EEE
:1009A000DBCF08F00E0EDBCF09F00A0E0B6E0C6ADF
:1009B0000D6A0E6ADBEC15F00F0E02C0DBFF100EA5
:1009C00003C0DBFF110E04C0DBFF120E05C0DBFF0E
:1009D0000F0EDB50E76E020EE7CFDBFF0B0EDBCF17
:1009E00006F00C0EDBCF07F00D0EDBCF08F00E0E7D
:1009F000DBCF09F00A0E0B6E0C6A0D6A0E6ADBEC97
:100A000015F00B0E06C0DBFF0C0E07C0DBFF0D0E52
:100A100008C0DBFF0E0E09C0DBFF0B0EDBCF06F0BC
:100A20000C0EDBCF07F00D0EDBCF08F00E0EDBCF88
:100A300009F00A0E0B6E0C6A0D6A0E6ADBEC15F0FB
:100A40000F0E02C0DBFF100E03C0DBFF110E04C04F
:100A5000DBFF120E05C0DBFF0F0EDB50E76E010E51
:100A6000E7CFDBFF0B0EDBCF06F00C0EDBCF07F082
:100A70000D0EDBCF08F00E0EDBCF09F00A0E0B6E69
:100A80000C6A0D6A0E6ADBEC15F00B0E06C0DBFF7C
:100A90000C0E07C0DBFF0D0E08C0DBFF0E0E09C0F9
:100AA000DBFF0B0EDB50DF6E0A0EDB6AF36EDBCF73
:100AB000F4FFF350F45C22E2D9CF14F0DACF15F052
:100AC0000A0EDB500F011424E96E000E1520EA6EA9
:100AD000EF503009E66E0A0EDB50E76EF90EDBCF01
:100AE000E9FFFA0EDBCFEAFFE750E926000EEA2223
:100AF000E552E750EF6E0A0EDB2AD8D7130EE15C01
:100B000002E2E16AE552E16EE552E7CFD9FF120059
:100B1000D9CFE6FFE1CFD9FFFE0EDB50F00BE83A6C
:100B2000060DFE0EDBCFE7FFF350E75EFE0EE7CFCC
:100B3000DBFFDB5000D0E552E7CFD9FF1200D9CF61
:100B4000E6FFE1CFD9FF0A0E146E14C00EF0FE0EC0
:100B5000DBCF09F018EC17F00950060DFE0EDBCFC5
:100B6000E7FFF350E726FE0EE7CFDBFFDB50146E06
:100B7000156A14C0F3FF15C0F4FF00D0E552E7CFAB
:100B8000D9FF1200D9CFE6FFE1CFD9FF060EE1264B
:100B9000F36EFC0EDBCFF4FFF350F45C71E2020E57
:100BA000DB6A030EDB6A040EDB6A050EDB6ADF6AB2
:100BB000FC0EDB50DF5C58E2FC0EDBCFE6FFDF28EB
:100BC000E552E75CE76E010EE7CFDBFFF36E040E44
:100BD000F3CFDBFF050EDB6A010EDB50000814E2E9
:100BE0000A0E086E096A040EDBCF0DF0050EDBCF8E
:100BF0000EF03FEC16F0040E06C0DBFF050E07C03A
:100C0000DBFF010EDB06E8D7020EDBCF16F0030E8A
:100C1000DBCF17F0DF50E76EFD0EDBCFE9FFFE0EF6
:100C2000DBCFEAFFE750E926000EEA22EF500F0B78
:100C3000186E196A040EDBCF08F0050EDBCF09F041
:100C400018C00DF019C00EF03FEC16F01650062437
:100C5000146E17500720156E020E14C0DBFF030E32
:100C600015C0DBFFDF2AA4D7020EDBCF14F0030E82
:100C7000DBCF15F014C0F3FF15C0F4FF04D003D090
:100C8000F36AF46A00D0060EE15C02E2E16AE55222
:0A0C9000E16EE552E7CFD9FF120034
:060C9A00D9CFE6FFE1CF17
:100CA000D9FFFE0EDB04E96EEA6AD890E936EA362F
:100CB000940EE926010EEA22EECF14F0EFCF15F0E4
:100CC00014C0F3FF15C0F4FF00D0E552E7CFD9FF01
:100CD0001200D9CFE6FFE1CFD9FFFE0EDBCFE6FF52
:100CE000E66A6BEC00F0E552E552FF0FE96EEA6A46
:100CF000D890E936EA36A20EE926010EEA22EECFB6
:100D000014F0EFCF15F014C0F3FF15C0F4FF00D0BE
:100D1000E552E7CFD9FF1200D9CFE6FFE1CFD9FFE7
:100D200038EC11F0D00EE66E7CEC11F0E552E66A7C
:100D30007CEC11F0E55238EC11F0D10EE66E7CEC53
:100D400011F0E552010EE66EC3EC11F0E552E66ECD
:100D5000FD0EDBCFE9FFFE0EDBCFEAFFE552E750E9
:100D6000EF6E010EE66EC3EC11F0E552E66E010E79
:100D7000E76EFD0EDBCFE9FFFE0EDBCFEAFFE750AB
:100D8000E926000EEA22E552E750EF6E010EE66E0C
:100D9000C3EC11F0E552E66E020EE76EFD0EDBCFFE
:100DA000E9FFFE0EDBCFEAFFE750E926000EEA225C
:100DB000E552E750EF6E010EE66EC3EC11F0E5521E
:100DC000E66E030EE76EFD0EDBCFE9FFFE0EDBCF16
:100DD000EAFFE750E926000EEA22E552E750EF6EFF
:100DE000010EE66EC3EC11F0E552E66E040EE76EFE
:100DF000FD0EDBCFE9FFFE0EDBCFEAFFE750E92671
:100E0000000EEA22E552E750EF6E010EE66EC3ECEB
:100E100011F0E552E66E050EE76EFD0EDBCFE9FF41
:100E2000FE0EDBCFEAFFE750E926000EEA22E5528C
:100E3000E750EF6EE66AC3EC11F0E552E66E060E7F
:100E4000E76EFD0EDBCFE9FFFE0EDBCFEAFFE750DA
:100E5000E926000EEA22E552E750EF6E4EEC11F063
:100E6000E552E7CFD9FF1200D9CFE6FFE1CFD9FF96
:100E700038EC11F0D00EE66E7CEC11F0E552E66A2B
:100E80007CEC11F0E552FD0EDBCFE9FFFE0EDBCF6F
:100E9000EAFFEF50E66E7CEC11F0E552010EE76ED2
:100EA000FD0EDBCFE9FFFE0EDBCFEAFFE750E926C0
:100EB000000EEA22EF50E66E7CEC11F0E552020ED5
:100EC000E76EFD0EDBCFE9FFFE0EDBCFEAFFE7505A
:100ED000E926000EEA22EF50E66E7CEC11F0E552B6
:100EE000030EE76EFD0EDBCFE9FFFE0EDBCFEAFF60
:100EF000E750E926000EEA22EF50E66E7CEC11F096
:100F0000E552040EE76EFD0EDBCFE9FFFE0EDBCFF0
:100F1000EAFFE750E926000EEA22EF50E66E7CEC8D
:100F200011F0E552050EE76EFD0EDBCFE9FFFE0E78
:100F3000DBCFEAFFE750E926000EEA22EF50E66E2B
:100F40007CEC11F0E552060EE76EFD0EDBCFE9FFFB
:100F5000FE0EDBCFEAFFE750E926000EEA22EF5053
:100F6000E66E7CEC11F0E5524EEC11F0E552E7CF65
:100F7000D9FF1200D9CFE6FFE1CFD9FFFD0EDB0488
:100F80001DE1FE0EDB504009E76EFE0EE7CFDBFFF2
:100F9000FC0EDB0408E1FE0EDB502009E76EFE0EBE
:100FA000E7CFDBFF0AD0FC0EDB5007E1FE0EDB5083
:100FB000DF0BE76EFE0EE7CFDBFF0AD0FD0EDB5046
:100FC00007E1FE0EDB50BF0BE76EFE0EE7CFDBFF47
:100FD000FE0EDB5000D0E552E7CFD9FF1200D9CF8B
:100FE000E6FFE1CFD9FFFD0EDBCFE9FFFE0EDBCF41
:100FF000EAFFEE52EF50E66EFB0EDBCFE9FFFC0E90
:10100000DBCFEAFFEE52E552E750EF6EFD0EDBCF8D
:10101000E9FFFE0EDBCFEAFFEF50E66EFB0EDBCF03
:10102000E9FFFC0EDBCFEAFFE552E750EF6EFD0E65
:10103000DBCFE9FFFE0EDBCFEAFF020EE926000E52
:10104000EA22EFCF14F00C0E145C42E3FD0EDBCF6E
:10105000E9FFFE0EDBCFEAFF020EE926000EEA22D0
:10106000EF50F40FE66EFB0EDBCFE9FFFC0EDBCF9B
:10107000EAFF020EE926000EEA22E552E750EF6E83
:10108000FB0EDBCFE9FFFC0EDBCFEAFF070EE92604
:10109000000EEA22010EEF6E0C0E146EFD0EDBCF79
:1010A000E9FFFE0EDBCFEAFF020EE926000EEA2280
:1010B000EF50145C0CE1FB0EDBCFE9FFFC0EDBCF45
:1010C000EAFF020EE926000EEA220C0EEF6E4BD06C
:1010D000FD0EDBCFE9FFFE0EDBCFEAFF020EE926B5
:1010E000000EEA22EFCF14F00C0E145C3CE2FD0E71
:1010F000DBCFE9FFFE0EDBCFEAFF020EE926000E92
:10110000EA22EF50E66EFB0EDBCFE9FFFC0EDBCFF1
:10111000EAFF020EE926000EEA22E552E750EF6EE2
:10112000FB0EDBCFE9FFFC0EDBCFEAFF070EE92663
:10113000000EEA22EF6AFD0EDBCFE9FFFE0EDBCFE9
:10114000EAFF020EE926000EEA22EF500CE1FB0E48
:10115000DBCFE9FFFC0EDBCFEAFF020EE926000E33
:10116000EA220C0EEF6EE552E7CFD9FF1200D9CF7D
:10117000E6FFE1CFD9FFFD0EDBCFE9FFFE0EDBCFAF
:10118000EAFFEE52EF50E66EFB0EDBCFE9FFFC0EFE
:10119000DBCFEAFFEE52E552E750EF6EFD0EDBCFFC
:1011A000E9FFFE0EDBCFEAFFEF50E66EFB0EDBCF72
:1011B000E9FFFC0EDBCFEAFFE552E750EF6EFD0ED4
:1011C000DBCFE9FFFE0EDBCFEAFF070EE926000EBC
:1011D000EA22EF0436E1FD0EDBCFE9FFFE0EDBCFA6
:1011E000EAFF020EE926000EEA22EF500C0FE66E2F
:1011F000FB0EDBCFE9FFFC0EDBCFEAFF020EE92698
:10120000000EEA22E552E750EF6E0C0E146EFD0E52
:10121000DBCFE9FFFE0EDBCFEAFF020EE926000E70
:10122000EA22EF50145C0CE1FB0EDBCFE9FFFC0E71
:10123000DBCFEAFF020EE926000EEA220C0EEF6E6B
:101240003FD0FD0EDBCFE9FFFE0EDBCFEAFF070E3E
:10125000E926000EEA22EF5033E1FD0EDBCFE9FF75
:10126000FE0EDBCFEAFF020EE926000EEA22EF5067
:10127000E66EFB0EDBCFE9FFFC0EDBCFEAFF020ED2
:10128000E926000EEA22E552E750EF6E0C0E146ECE
:10129000FD0EDBCFE9FFFE0EDBCFEAFF020EE926F3
:1012A000000EEA22EF50145C0BE1FB0EDBCFE9FFEE
:1012B000FC0EDBCFEAFF020EE926000EEA22EF6AFF
:1012C000E552E7CFD9FF1200D9CFE6FFE1CFD9FF32
:1012D000E652DF6AFD0EDB040DE1FE0EDB500C0F63
:1012E000DF6E0C0E146EFE0EDB50145C02E10C0E71
:1012F000DF6E16D0FD0EDB500BE1FE0EDB50DF6E15
:101300000C0E146EFE0EDB50145C01E1DF6A08D097
:10131000AA0E146EFD0EDB50145C02E1AA0EDF6E05
:10132000DF5000D0E552E552E7CFD9FF1200D9CF08
:10133000E6FFE1CFD9FF38EC11F0D00EE66E7CEC81
:1013400011F0E552E66A7CEC11F0E552050EE76E0D
:10135000FD0EDBCFE9FFFE0EDBCFEAFFE750E9260B
:10136000000EEA22EF500F0B146E040EE76EFD0E16
:10137000DBCFE9FFFE0EDBCFEAFFE750E926000EE8
:10138000EA22EF500F0B100DF3501410E66E7CECB8
:1013900011F0E552030EE76EFD0EDBCFE9FFFE0E06
:1013A000DBCFEAFFE750E926000EEA22EF500F0BF1
:1013B000146E020EE76EFD0EDBCFE9FFFE0EDBCFF3
:1013C000EAFFE750E926000EEA22EF500F0B100D5E
:1013D000F3501410E66E7CEC11F0E552010EE76E4E
:1013E000FD0EDBCFE9FFFE0EDBCFEAFFE750E9267B
:1013F000000EEA22EF500F0B146EFD0EDBCFE9FF5B
:10140000FE0EDBCFEAFFEF500F0B100DF350141060
:10141000E66E7CEC11F0E5524EEC11F0E552E7CFB0
:10142000D9FF1200D9CFE6FFE1CFD9FF38EC11F098
:10143000D00EE66E7CEC11F0E552040EE66E7CEC0C
:1014400011F0E552010EE76EFD0EDBCFE9FFFE0E57
:10145000DBCFEAFFE750E926000EEA22EF500F0B40
:10146000146EFD0EDBCFE9FFFE0EDBCFEAFFEF507F
:101470000F0B100DF3501410E66E7CEC11F0E552DA
:10148000030EE76EFD0EDBCFE9FFFE0EDBCFEAFFBA
:10149000E750E926000EEA22EF500F0B146E020E01
:1014A000E76EFD0EDBCFE9FFFE0EDBCFEAFFE75074
:1014B000E926000EEA22EF500F0B100DF350141026
:1014C000E66E7CEC11F0E552050EE76EFD0EDBCF0B
:1014D000E9FFFE0EDBCFEAFFE750E926000EEA2225
:1014E000EF500F0B146E040EE76EFD0EDBCFE9FF1D
:1014F000FE0EDBCFEAFFE750E926000EEA22EF50AE
:101500000F0B100DF3501410E66E7CEC11F0E55249
:101510004EEC11F0E552E7CFD9FF1200D9CFE6FF2C
:10152000E1CFD9FF38EC11F0D00EE66E7CEC11F073
:10153000E552030EE66E7CEC11F0E552FE0EDBCFB9
:10154000E6FF7CEC11F0E5524EEC11F0E552E7CFEE
:10155000D9FF1200D9CFE6FFE1CFD9FFE6520E0E38
:10156000E66ED00EE66E14EC12F0E552E552DF6E38
:10157000DFAE0AD0E66A0E0EE66ED00EE66E36ECF0
:1015800012F0E552E552E552E552E552E7CFD9FFB8
:101590001200850EE66E020EE66E8CEC06F0E55249
:1015A000E5520101BA510201855D05E085C2BAF13B
:0815B0000101010E936F12000E
:0815B800D9CFE6FFE1CFD9FF16
:1015C000050EE126FE0EDB50080802E2000E66D092
:1015D000FE0EDBCFCCF1DF6A0101CC51DF5C0AE209
:1015E000DF50EA6AC40FE96E010EEA22A6C2EFFFDD
:1015F000DF2AF2D7BC0ED26F010ED36FDF6A0B0E5B
:10160000DF5C48E2010EDB6AFE0EDB50F36E010E7A
:10161000DBCFF4FFF350F45C15E2DF50EA6A9C0F75
:10162000E96E020EEA22EF50E66E010EDB50EA6A26
:10163000BC0FE96E010EEA22E552E750EF6E010E93
:10164000DB2AE2D7020EDB6A640EF36E020EDBCFFA
:10165000F4FFF350F45C1CE22DD8030EF36EF3CFCD
:10166000DBFF040EDB6A030EDBCF14F0DB06040E97
:10167000DBCF15F001E2DB061450151006E0080E72
:10168000E66E18EC00F0E552EED7020EDB2ADCD74E
:10169000DF2AB5D70101CD6B010E00D0146E050E07
:1016A000E15C02E2E16AE552E16E1450E552E7CFF7
:1016B000D9FF12000101BB51010A14E0010A01E047
:1016C0003BD0CD51EA6AD225E96ED351EA22EF50E0
:1016D000E66E32D9E5520101CD2BCC51CD5D01E34F
:1016E000CD6B2AD0CD51EA6AD225E96ED351EA22D8
:1016F000EF50E66E21D9E5520101CD2BCC51CD5DE5
:1017000001E3CD6BCE2B000ECF23D051CE5DD15156
:10171000CF5911E3CE6BCF6BBC0ED21902E1010E93
:10172000D31905E1C40ED26F010ED36F04D0BC0EE5
:10173000D26F010ED36F00D01200D9CFE6FFE1CFF8
:10174000D9FFE652DF6ADF6A0101CC51DF5C16E2A5
:10175000DF50E76EFD0EDBCFE9FFFE0EDBCFEAFFC9
:10176000E750E926000EEA22EF50E66E35D9E55241
:10177000000902E1000E41D0DF2AE6D7DF6ACC5132
:10178000DF5C38E2DF50E76EFD0EDBCFE9FFFE0ED7
:10179000DBCFEAFFE750E926000EEA22EF502008EF
:1017A00009E1DF50EA6ABC0FE96E010EEA22A6C227
:1017B000EFFF1ED0DF50E76EFD0EDBCFE9FFFE0E20
:1017C000DBCFEAFFE750E926000EEA22EF50D00F08
:1017D000EA6A9C0FE96E020EEA22EF50E66EDF50D5
:1017E000EA6ABC0FE96E010EEA22E552E750EF6E9D
:1017F000DF2AC5D7CD6B010E00D0E552E552E7CF09
:10180000D9FF1200D9CFE6FFE1CFD9FFE652DF6A58
:10181000DF6A0101CC51DF5C19E2DF50E76EFD0E9B
:10182000DBCFE9FFFE0EDBCFEAFFE750E926000E33
:10183000EA22EF50E66EDF50EA6ABC0FE96E010E55
:10184000EA22E552E750EF6EDF2AE3D7CD6BE5528F
:10185000E552E7CFD9FF1200D9CFE6FFE1CFD9FF9C
:10186000E652DF6AFE0EDBCF14F00101CC51D880C6
:10187000145402E2000E2DD0FD0EDBCFE6FFACD8F3
:10188000E552000902E1000E24D0FD0EDB502008D5
:101890000AE1FE0EDB50EA6ABC0FE96E010EEA2295
:1018A000A6C2EFFF14D0FD0EDB50D00FEA6A9C0FEA
:1018B000E96E020EEA22EF50E66EFE0EDB50EA6A97
:1018C000BC0FE96E010EEA22E552E750EF6E010E01
:1018D00000D0E552E552E7CFD9FF1200D9CFE6FF9D
:1018E000E1CFD9FF0101CE6BCF6B010EBB6FE5528B
:1018F000E7CFD9FF12000101BC0ED26F010ED36FEA
:10190000BB6B1200D9CFE6FFE1CFD9FFE652DF6A09
:101910000101CC51DF5C0AE2DF50EA6ABC0FE96EDC
:10192000010EEA22A6C2EFFFDF2AF2D7CD6BE55205
:10193000E552E7CFD9FF1200D9CFE6FFE1CFD9FFBB
:101940008080808280848086FE0EDB1C836E010195
:10195000CD51030A0DE0010A09E0030A05E0010A7E
:1019600001E008D0809006D0809204D0809402D00C
:10197000809600D0E552E7CFD9FF1200D9CFE6FF1D
:10198000E1CFD9FF020EE126FE0EDB50DF6EFD0E29
:10199000DB28DF5C17E2DF50EA6ABC0FE96E010E5C
:1019A000EA22010EEFCFDBFFDB508009E66EDF504D
:1019B000EA6ABC0FE96E010EEA22E552E750EF6ECB
:1019C000DF2AE5D7020EE15C02E2E16AE552E16E50
:1019D000E552E7CFD9FF1200D9CFE6FFE1CFD9FF1B
:1019E000E652DF6AFE0EDB50200803E1010EDF6ED7
:1019F0000ED0300EF36EFE0EDBCFF4FFF350F45C2E
:101A000006E3FE0EDB50390802E3010EDF6EDF5005
:101A100000D0E552E552E7CFD9FF1200D9CFE6FF5B
:101A2000E1CFD9FFE652DF6ADF6A0101CC51DF5C0A
:101A300016E2DF50E76EFD0EDBCFE9FFFE0EDBCFD7
:101A4000EAFFE750E926000EEA22EF50E66EC4DF17
:101A5000E552000902E1000E4AD0DF2AE6D7FC0E6B
:101A6000DB50DF6EFB0EDBCFE6FFFC0EDB50E552FA
:101A7000E724DF5C38E2DF50E76EFD0EDBCFE9FFE5
:101A8000FE0EDBCFEAFFE750E926000EEA22EF5018
:101A9000200809E1DF50EA6ABC0FE96E010EEA2274
:101AA000A6C2EFFF1ED0DF50E76EFD0EDBCFE9FFD1
:101AB000FE0EDBCFEAFFE750E926000EEA22EF50E8
:101AC000D00FEA6A9C0FE96E020EEA22EF50E66E32
:101AD000DF50EA6ABC0FE96E010EEA22E552E750D8
:101AE000EF6EDF2ABFD70101CD6B010E00D0E552AA
:081AF000E552E7CFD9FF120017
:081AF800D9CFE6FFE1CFD9FFD1
:101B0000020EE126800EE66E250EE66EE66AE66AB5
:101B100024EC10F0E552E552E552E552FE0EDBCF23
:101B200008F1FD0EDBCF09F1FC0EDBCF0AF1FB0E55
:101B3000DBCF0BF1F90EDBCF88F1FA0EDBCF89F1A9
:101B40000AD8020EE15C02E2E16AE552E16EE5527A
:101B5000E7CFD9FF1200800EE66E250EE66EE66A2C
:101B6000E66A24EC10F0E552E552E552E552010137
:101B7000846B856B010E076F866B87698EC18AF156
:101B80008FC18BF190C18CF191C18DF107C192F1A0
:101B90001200D9CFE6FFE1CFD9FF060EE126DF6ABA
:101BA00001010751925D0BE1070509E0030E075D96
:101BB00006E08707875102E1CEDFB7D001D0876901
:101BC0000751030A01E1ACD0010A13E0030A02E065
:101BD000C2DFA9D0E7EC10F0000903E004EC11F03B
:101BE000DF6E01010851DF5C03E1846B020E076FB9
:101BF0009AD0E7EC10F0000901E197D00101876964
:101C000004EC11F0DF6E01010951DF5C74E1020E9A
:101C1000DB6A030EDB68D950030FE66E000EDA2094
:101C2000E66E8DD8E552E552E76E020EE7CFDBFF98
:101C3000DB50020A54E0030A05E0010A01E057D034
:101C40008ADF73D001018851891147E0D950040F10
:101C5000E66E000EDA20E66E860EE66E010EE66E89
:101C60000C0EE66E010EE66E05D089C1FAFF010189
:101C70008851F96EFADF146E060EE15E1450010110
:101C8000856F010E486F852B86C149F1852BDE5289
:101C9000020EDD6E8551F36E010EDBCFF4FFF350C3
:101CA000F45C1AE2040EDBCFE9FF050EDBCFEAFF9E
:101CB000EF50E66E010EDB50EA6A480FE96E010E46
:101CC000EA22E552E750EF6E040EDB2A050E01E32F
:101CD000DB2A010EDB2ADED701D03DDF08D001016F
:101CE000010E486F852B86C149F1852B00D001017B
:101CF000030E076F14D08451842BEA6A0C0FE96E2F
:101D0000010EEA22DFCFEFFF3C0E845D08E3010EF7
:101D1000486F852B900E496F852B030E076F03D0FC
:101D200018D819DF00D007C192F1060EE15C02E27B
:101D3000E16AE552E16EE552E7CFD9FF1200D9CF53
:101D4000E6FFE1CFD9FF010E00D0E552E7CFD9FF82
:101D50001200D9CFE6FFE1CFD9FF020EE126DF6AFC
:101D6000010EDB6A85C1E6FF480EE66E010EE66EE7
:101D700063D8E552E552E552DF6E0AC1E6FF88EC12
:101D800010F0E552010EDB6A01018551F36E010E80
:101D9000DBCFF4FFF350F45C0FE2010EDB50EA6A94
:101DA000480FE96E010EEA22EF50E66E88EC10F063
:101DB000E552010EDB2AE8D7DFCFE6FF88EC10F012
:101DC000E5520BC1E6FF88EC10F0E552A4EC10F0F0
:101DD0000400020EE15C02E2E16AE552E16EE552C6
:101DE000E7CFD9FF1200D9CFE6FFE1CFD9FFFD0E33
:101DF000DBCFF6FFFE0EDBCFF7FF0800F55016E055
:101E0000FD0EDBCFF6FFFE0EDBCFF7FF0800F5502F
:101E1000E66E88EC10F0E552FD0EDBCFF6FFDB2A14
:101E2000FE0EDBCFF7FF01E3DB2AE1D7A4EC10F0D5
:101E3000E552E7CFD9FF1200D9CFE6FFE1CFD9FFB6
:101E4000030EE126DF6A010EDB6AFC0EDB50F36E47
:101E5000010EDBCFF4FFF350F45C12E2010EDB5015
:101E6000E76EFD0EDBCFE9FFFE0EDBCFEAFFE750AA
:101E7000E926000EEA22EF50DF1A010EDB2AE5D731
:101E8000DF50146E030EE15C03E200D0E16AE5521C
:101E9000E16E1450E552E7CFD9FF1200D9CFE6FF2B
:101EA000E1CFD9FFE652FC0EDBCF85F101010A0E2E
:101EB000866F010E486F852B86C149F1852B020E76
:101EC000DF6E8551DF5C18E2FD0EDBCFE9FFFE0E11
:101ED000DBCFEAFFEF50E66EDF50EA6A480FE96EAB
:101EE000010EEA22E552E750EF6EFD0EDB2AFE0EF0
:101EF00001E3DB2ADF2AE5D72CDFE552E552E7CF05
:041F0000D9FF1200F3
:0C1F0400DACFE4FFE2CFDAFFE9CFE4FF20
:101F1000EACFE4FFF6CFE4FFF7CFE4FFF5CFE4FF2D
:101F2000F3CFE4FFF4CFE4FFFACFE4FF00EE00F0DC
:101F3000140EE80403E3EECFE4FFFBD700EE14F049
:101F4000080EE80403E3EECFE4FFFBD7E652D9CF57
:101F5000E6FFE1CFD9FFE65220EC16F0DF6E02017A
:101F60003F513F2BEA6A420FE96E020EEA22DFCFB1
:101F7000EFFF3C0E3F5D01E33F6B412B9E9AE55224
:101F8000E552E7CFD9FFE55200EE1BF0080EE8045A
:101F900003E3E5CFEDFFFBD700EE13F0140EE804EA
:101FA00003E3E5CFEDFFFBD7E5CFFAFFE5CFF4FF85
:101FB000E5CFF3FFE5CFF5FFE5CFF7FFE5CFF6FF80
:101FC000E5CFEAFFE5CFE9FFE5CFDAFF1100DACF91
:101FD000E4FFE2CFDAFFE9CFE4FFEACFE4FFE65225
:101FE000D9CFE6FFE1CFD9FFE6520201025105E168
:101FF000ACA2FED78290AC9A1BD00151EA6A030FC3
:10200000E96E020EEA22EFCFDFFFDF50AD6E012B4B
:102010003C0E015D01E3016B000EE76E0219E8AEB4
:1020200002D0023503D0E750D880025501E2020702
:10203000E552E552E7CFD9FFE552E5CFEAFFE5CF1C
:10204000E9FFE5CFDAFF1100D9CFE6FFE1CFD9FFF5
:10205000E6527C0EDF6ED950FB0FE96EFF0EDA20E0
:10206000EA6EEE2A000EEE22EE22EE22D950FB0F8F
:10207000E96EFF0EDA20EA6E040EE76ED890EF36B6
:10208000010EEB36020EEB36030EEB36E706F6E1F9
:10209000146A480E156EE80E166E010E176E14C007
:1020A00006F015C007F016C008F017C009F0FB0EC7
:1020B000DBCF0BF0FC0EDBCF0CF0FD0EDBCF0DF019
:1020C000FE0EDBCF0EF0DBEC15F0FB0E06C0DBFFE7
:1020D000FC0E07C0DBFFFD0E08C0DBFFFE0E09C0D3
:1020E000DBFFFB0EDBCFE6FFFC0EDBCFE6FFDFCF37
:1020F000E6FF70EC15F0E552E552E552D08EAC8A61
:10210000AC9EF28C9F8AE552E552E7CFD9FF1200D0
:10211000D9CFE6FFE1CFD9FFACA2FED70201005133
:10212000002BEA6A030FE96E020EEA22FE0EDBCFF5
:10213000EFFF022B3C0E005D01E3006B010E00D0AF
:10214000E552E7CFD9FF1200D9CFE6FFE1CFD9FFA3
:10215000020EE1268280000E0201E76E0219E8AE4F
:1021600002D0023503D0E750D880025523E2015156
:10217000EA6A030FE96E020EEA22010EEFCFDBFFDF
:10218000ACA2FED7010EDB50AD6EACA2FED70201B1
:10219000012B3C0E015D01E3016B000EE76E02199D
:1021A000E8AE02D0023503D0E750D880025501E2F4
:1021B0000207D1D78290146E020EE15C02E2E16A5E
:1021C000E552E16E1450E552E7CFD9FF1200D9CFA6
:1021D000E6FFE1CFD9FFE652DF6A9D9A000E0201C9
:1021E000E76E4119E8AE02D0413503D0E750D88000
:1021F000415502E2010EDF6E9D8ADF5000D0E552AC
:10220000E552E7CFD9FF1200D9CFE6FFE1CFD9FFE2
:10221000E6529D9A02014051402BEA6A420FE96E54
:10222000020EEA22EFCFDFFF3C0E405D01E3406B80
:10223000000EE76E4119E8AE02D0413503D0E750F9
:10224000D880415501E241079D8ADF5000D0E55218
:08225000E552E7CFD9FF1200AF
:08225800C76AC78E590EC86E5B
:10226000280EC66EC56A9E96A19694869488120022
:102270009496949882888286050EE66E33EC17F069
:10228000E5528298050EE66E33EC17F0E552829621
:10229000050EE66E33EC17F0E55212009496949812
:1022A0008298050EE66E33EC17F0E5528286050E35
:1022B000E66E33EC17F0E55282881200D9CFE6FFC4
:1022C000E1CFD9FFE65294969488DF6ADF500A087E
:1022D0000EE3050EE66E33EC17F0E5528286050E2E
:1022E000E66E33EC17F0E5528296DF2AEFD7E5521F
:1022F000E552E7CFD9FF1200D9CFE6FFE1CFD9FFF2
:10230000E65294969498DF6A080EDF5C25E2FE0E92
:10231000DB50800B02E0010E01D0000EE8B0828895
:10232000E8A08298030EE66E33EC17F0E552828641
:10233000060EE66E33EC17F0E5528296020EE66E5C
:1023400033EC17F0E552FE0EDBCFF3FFF39EF346BE
:10235000F3CFDBFFDF2AD8D79488020EE66E33EC8A
:1023600017F0E5528286060EE66E33EC17F0E55262
:102370008296060EE66E33EC17F0E552E552E55212
:10238000E7CFD9FF1200D9CFE6FFE1CFD9FF020E88
:10239000E126DF6A949694989488010EDB6A080E11
:1023A000F36E010EDBCFF4FFF350F45C17E282868C
:1023B000060EE66E33EC17F0E552DF9EDF468250E4
:1023C000100B01E0010EDF10DF6E8296060EE66E46
:1023D00033EC17F0E552010EDB2AE1D79498FE0E9C
:1023E000DB0402E1829801D08288020EE66E33ECB3
:1023F00017F0E5528286060EE66E33EC17F0E552D2
:102400008296060EE66E33EC17F0E552DF50146E3E
:10241000020EE15C03E200D0E16AE552E16E145085
:10242000E552E7CFD9FF1200D9CFE6FFE1CFD9FFC0
:10243000E6521EDFFE0EDBCFE6FF5EDFE552FD0E4D
:10244000DBCFE6FF59DFE55213DFFE0EDB28E66E39
:1024500053DFE552E66A97DFE552DF6E1FDFDF509C
:1024600000D0E552E552E7CFD9FF1200D9CFE6FF01
:10247000E1CFD9FFFDDEFE0EDBCFE6FF3DDFE5520B
:10248000FD0EDBCFE6FF38DFE552FC0EDBCFE6FFCB
:0E24900033DFE55203DFE552E7CFD9FF12003C
:02249E00DACF93
:1024A000E4FFE2CFDAFFE9CFE4FFEACFE4FFF6CFC3
:1024B000E4FFF7CFE4FFF5CFE4FFF3CFE4FFF4CF81
:1024C000E4FFFACFE4FF00EE00F0140EE80403E3AB
:1024D000EECFE4FFFBD700EE14F0080EE80403E3B0
:1024E000EECFE4FFFBD7E652F2940201962B000EEA
:1024F0009723982B99239A2B9B239051911107E0B6
:1025000005D091C2FAFF02019051F96EFADF8EC236
:10251000E6FF8FC2E6FF96EC16F0E552E552E55273
:1025200000EE1BF0080EE80403E3E5CFEDFFFBD758
:1025300000EE13F0140EE80403E3E5CFEDFFFBD744
:10254000E5CFFAFFE5CFF4FFE5CFF3FFE5CFF5FFE9
:10255000E5CFF7FFE5CFF6FFE5CFEAFFE5CFE9FFEF
:10256000E5CFDAFF1100DACFE4FFE2CFDAFFE9CFFF
:10257000E4FFEACFE4FFF6CFE4FFF7CFE4FFF5CFC7
:10258000E4FFF3CFE4FFF4CFE4FFFACFE4FF00EE83
:1025900000F0140EE80403E3EECFE4FFFBD700EEF7
:1025A00014F0080EE80403E3EECFE4FFFBD7E65295
:1025B0009E9092C2E6FF93C2E6FF7AEC16F0E552D7
:1025C000E55202019451951107E005D095C2FAFF3A
:1025D00002019451F96EFADFE55200EE1BF0080E8D
:1025E000E80403E3E5CFEDFFFBD700EE13F0140E94
:1025F000E80403E3E5CFEDFFFBD7E5CFFAFFE5CF36
:10260000F4FFE5CFF3FFE5CFF5FFE5CFF7FFE5CF2B
:10261000F6FFE5CFEAFFE5CFE9FFE5CFDAFF1100EE
:10262000D9CFE6FFE1CFD9FF9F0EE66EB2EC16F0F0
:10263000E552FD0EDBCF8EF2FE0EDBCF8FF2FB0EEE
:10264000DBCF90F2FC0EDBCF91F2FD0EDBCFE6FF8D
:10265000FE0EDBCFE6FF96EC16F0E552E552E552B2
:10266000E7CFD9FF1200D9CFE6FFE1CFD9FFC50EE2
:10267000E66EFFEC15F0E552FD0EDBCFE6FFFE0E39
:10268000DBCFE6FF7AEC16F0E552E5529F80FD0EB7
:10269000DBCF92F2FE0EDBCF93F2FB0EDBCF94F298
:0E26A000FC0EDBCF95F2E552E7CFD9FF12001A
:0226AE00E30E39
:1026B000E66E010EE66E34EC07F0E552E5528292CA
:1026C0001200D9CFE6FFE1CFD9FF040EE126DC0EE0
:1026D000E66E010EE66E8CEC06F0E552E55286D809
:1026E000010100510CE1D40EE66E010EE66E9DEC88
:1026F0000BF0E552E5520101010E006F12D0D40E2D
:10270000E66E010EE66E9DEC0BF0E552E552020E10
:10271000E66E010EE66EBEEC0CF0E552E5520101EC
:10272000006BF29E0101FE0556E1F28E020EDB6A9D
:10273000030EDB6ADE6ADD6ADECF14F0DDCF15F052
:10274000D890155004E6070E145C000E155835E2BB
:10275000D950020FE96EDACFEAFF030EEE1801E15D
:10276000ED5005E1020EDB2A030E01E3DB2A020E27
:10277000DBCFE9FF030EDBCFEAFF060ED880E95678
:10278000000EEA56DC0EE926010EEA22EF50E66E54
:10279000DECFE9FFDDCFEAFF010EE926010EEA22D6
:1027A000E552E750EF6EDF2A010E01E3DB2A020E4D
:1027B000DB2A030E01E3DB2ABFD7060EE66E010E0D
:1027C000E66E010EE66E4EEC0FF0E552E552E55274
:1027D000F29E0101FE6BF28E040EE15C02E2E16A00
:1027E000E552E16EE552E7CFD9FF12000F0E01016D
:1027F000DD15300FD46FF00EDD15E8380F0B300FFC
:10280000D56F0F0EDE15300FD66FF00EDE15E838DF
:102810000F0B300FD76F0F0EE115300FD86FF00E82
:10282000E115E8380F0B300FD96F0F0EE015300FA0
:10283000DA6FF00EE015E8380F0B300FDB6F120087
:10284000D9CFE6FFE1CFD9FF040EE126FD0EDBCFA5
:10285000E9FFFE0EDBCFEAFF020EEFCFDBFF030E38
:10286000DB6A020EDB50800A01E001D000D0030ECB
:10287000DB50146E040EE15C03E200D0E16AE55225
:0C288000E16E1450E552E7CFD9FF1200C2
:04288C00D9CFE6FFBB
:10289000E1CFD9FF040EE126DF6A030EDB6AE4EC28
:1028A00016F0AAEC0AF0080EE66EDCEC0AF0E5522F
:1028B000000EE66EE66AEF0EE66ED80EE66E10ECDF
:1028C00013F0E552E552E552E552B40EE66E160EEF
:1028D000E66E770EE66EEC0EE66E33EC13F0E55224
:1028E000E552E552E55257EC13F015EC00F0C1EC5F
:1028F00014F0400EE66E280EE66EDD0EE66ECC0E8F
:10290000E66EBB0EE66EAA0EE66E7CEC0DF0146E63
:10291000060EE15E1450F28E010EDB6A1A0EF36EA3
:10292000010EDBCFF4FFF350F45C11E2010EDB503B
:10293000410FE76E020EE7CFDBFFDBCFE6FF88EC4F
:1029400010F0E552A4EC10F0010EDB2AE7D7C9EC39
:102950000DF00201FA0E965D000E975907E361EC47
:1029600013F029EC17F00201966B976BF0D7040E69
:10297000E15C02E2E16AE552E16EE552E7CFD9FFA0
:02298000120043
:0E298200FE0EE66E5DEC16F0E552F2909368E4
:102990000101FE6B81CFFFF11200DACFE4FFE2CF3D
:1029A000DAFFE9CFE4FFEACFE4FFF6CFE4FFF7CFA9
:1029B000E4FFF5CFE4FFF3CFE4FFF4CFE4FFFACF79
:1029C000E4FF00EE00F0140EE80403E3EECFE4FFB2
:1029D000FBD700EE14F0080EE80403E3EECFE4FFAB
:1029E000FBD7E6520101010EFE6F81CFFFF1080E09
:1029F000E66E33EC17F0E552F290E55200EE1BF074
:102A0000080EE80403E3E5CFEDFFFBD700EE13F07B
:102A1000140EE80403E3E5CFEDFFFBD7E5CFFAFFA3
:102A2000E5CFF4FFE5CFF3FFE5CFF5FFE5CFF7FF07
:102A3000E5CFF6FFE5CFEAFFE5CFE9FFE5CFDAFF27
:022A4000110083
:0E2A4200500EF66E000EF76E000EF86E0201DA
:102A50000900F550AC6F0900F550AD6F03E1AC67AC
:102A600001D03DD00900F550A76F0900F550A86FBF
:102A70000900F550A96F09000900F550E96E090039
:102A8000F550EA6E090009000900F550AA6F090027
:102A9000F550AB6F09000900F6CFAEF2F7CFAFF2F9
:102AA000F8CFB0F2A7C2F6FFA8C2F7FFA9C2F8FF9D
:102AB0000201AA5302E1AB5307E00900F550EE6EA4
:102AC000AA07F8E2AB07F9D7AEC2F6FFAFC2F7FF2D
:102AD000B0C2F8FF0201AC07000EAD5BBFD7120019
:102AE000D9CFE6FFDACFE6FFE1CFD9FFE2CFDAFFB9
:102AF000AC6AAB6AFD0EDBB0AC88DBA202D0AC8C5A
:102B0000AB8CDBB4AC8EDBA602D0AB8801D0AB8A39
:102B1000DBB8AC849E98DBBAAB86DBAC02D09D8A76
:102B200001D09D9A9E9ADBAE02D09D8801D09D98DF
:102B3000FB0EDB50AF6EFB0EFC0EDBCF15F015C0AD
:102B400014F0156A1450B06EAC8AAB8E949C948EBF
:102B5000AC50100B04E0AC50800B01E1948CE552BA
:0A2B6000E5CFDAFFE7CFD9FF12003E
:062B6A00446563004E6F9C
:102B700076004F63740053657000417567004A75B5
:102B80006C004A756E004D617900417072004D61B4
:102B90007200466562004A616E00536174004672BD
:102BA00069005468750057656400547565004D6F81
:062BB0006E0053756E007B
:0A2BB600056A046A036A026A200E31
:102BC000E76ED890063607360836093602360336E1
:102BD000043605360B50025C0C5003580D50045857
:102BE0000E50055809E30B50025E0C50035A0D506D
:0E2BF000045A0E50055A062AE72EE4D71200AA
:022BFE00D9CF2D
:102C0000E6FFDACFE6FFE1CFD9FFE2CFDAFFFD0E34
:102C1000DB507E0BCD6EFD0EDBAC02D0CD8E01D035
:102C2000CD9ECF6ACE6A9E90DBAE02D09D8001D051
:102C30009D90CD80E552E5CFDAFFE7CFD9FF1200B6
:102C4000D9CFE6FFDACFE6FFE1CFD9FFE2CFDAFF57
:102C5000E652F20E0201B317ABAC03D0B391ABB0A6
:102C6000B381ABB4B385ABB2B387AE50DF6EDF5088
:0E2C7000E552E552E5CFDAFFE7CFD9FF1200BB
:022C7E0008C08C
:102C800012F008500D02F4CF07F0F3CF06F0095010
:102C90000E02F4CF09F0F3CF08F00D02F35007262F
:102CA000F4500822E86A092212500E02F350072657
:0A2CB000F4500822E86A0922000C23
:062CBA00D9CFE6FFDACFDE
:102CC000E6FFE1CFD9FFE2CFDAFFE6528150DF6EB7
:102CD000FD0EDBA002D0F18E01D0F19EDBAE02D062
:102CE000F28601D0F296E552E552E5CFDAFFE7CF62
:042CF000D9FF1200F6
:0C2CF400D9CFE6FFDACFE6FFE1CFD9FF31
:102D0000E2CFDAFFE652E652FC0EDBCFDEFFDBCF8E
:102D1000DDFF010EDB50CF6EDF50CE6EE552E55287
:0C2D2000E552E5CFDAFFE7CFD9FF120043
:042D2C00D9CFE6FF16
:102D3000DACFE6FFE1CFD9FFE2CFDAFFE652E65283
:102D4000FC0EDBCFDEFFDBCFDDFF010EDB50D76EED
:102D5000DF50D66EE552E552E552E5CFDAFFE7CF18
:042D6000D9FF120085
:0C2D6400D9CFE6FFDACFE6FFE1CFD9FFC0
:102D7000E2CFDAFFFD0EDB507F0BD56ED76AD66A45
:102D8000F294FD0EDBAE02D0F28A01D0F29AD58E1B
:0C2D9000E552E5CFDAFFE7CFD9FF1200D3
:042D9C00056A046A56
:102DA000100EE76ED89008360936043605360D50F9
:102DB000045C0E50055805E30D50045E0E50055A94
:082DC000082AE72EF0D71200EB
:082DC800C26A0F0EC16EB50EC8
:102DD000C06E700ED3129B8C9490949C948E956AC6
:102DE00092909292929492969492936894969498D8
:042DF00096901200A7
:0C2DF400000EF36E00EE00F0060E01D899
:102E00001200EA6002D0EE6AFCD7F350E9601200CB
:042E1000EE6AFCD793
:0C2E140010EE80F020EE80F0F86A019CC7
:102E200021EC15F003EC00F046EC14F0FBD7120097
:102E3000056A080EE76ED890093605360E50055C17
:0C2E400002E3056E092AE72EF7D7120006
:042E4C000201B56B5F
:102E500012000201B50503E1B56B849003D0010EA9
:062E6000B56F8480120032
:0A2E6600FF0EE350E84E12000000DA
:0C2E700000D000D000D0E82EFAD71200ED
:042E7C00434F4D0A69
:012E80000051
:0F2E810000000000000000000000000000000042
:102E90000000000000000000000000000000000032
:102EA0000000000000000000000000000000000022
:102EB0000000000000000000000000000000000012
:102EC0000000000000000000000000000000000002
:102ED00000000000000000000000000000000000F2
:102EE00000000000000000000000000000000000E2
:0F2EF000000000000000000000000000000000D3
:012EFF0000D2
:102F000000000000000000000000000000000000C1
:102F100000000000000000000000000000000000B1
:102F200000000000000000000000000000000000A1
:102F30000000000000000000000000000000000091
:102F40000000000000000000000000000000000081
:102F50000000000000000000000000000000000071
:102F60000000000000000000000000000000000061
:102F70000000000000000000000000000000000051
:0B2F8000000000000000000000000046
:052F8B00000000000041
:022F900000003F
:0E2F9200000000000000000000000000000031
:0B2FA000000000000000000000000026
:052FAB00000000000021
:092FB00000000000000000000018
:072FB90000B22BAE2BAA2B86
:102FC000A62BA22B9E2B9A2B962B922B8E2B8A2BE9
:102FD000862B822B7E2B7A2B762B722B6E2B6A2BD9
:012FE00000F0
:0F2FE1004944454F4E494353003F065B4F666DD1
:052FF0007D077F6F006A
:012FF50000DB
:0A2FF6003F065B4F666D7D077F6F9D
:0130000000CF
:02300100FFFFCF
:0D30030000000000000000000000000000C0
:093010000000013913030701144B
:020000040030CA
:0100010008F6
:010002001BE2
:0100030012EA
:010005008179
:010006008178
:010008000FE8
:01000900C036
:01000A000FE6
:01000B00E014
:01000C000FE4
:01000D0040B2
:00000001FF
